{
  "contractName": "WorldJukebox",
  "abi": [
    {
      "constant": false,
      "inputs": [],
      "name": "renounceOwnership",
      "outputs": [],
      "payable": false,
      "stateMutability": "nonpayable",
      "type": "function"
    },
    {
      "constant": true,
      "inputs": [],
      "name": "owner",
      "outputs": [
        {
          "name": "",
          "type": "address"
        }
      ],
      "payable": false,
      "stateMutability": "view",
      "type": "function"
    },
    {
      "constant": true,
      "inputs": [],
      "name": "price",
      "outputs": [
        {
          "name": "",
          "type": "uint256"
        }
      ],
      "payable": false,
      "stateMutability": "view",
      "type": "function"
    },
    {
      "constant": true,
      "inputs": [],
      "name": "trackQueue",
      "outputs": [
        {
          "name": "front",
          "type": "uint256"
        },
        {
          "name": "back",
          "type": "uint256"
        }
      ],
      "payable": false,
      "stateMutability": "view",
      "type": "function"
    },
    {
      "constant": false,
      "inputs": [
        {
          "name": "_newOwner",
          "type": "address"
        }
      ],
      "name": "transferOwnership",
      "outputs": [],
      "payable": false,
      "stateMutability": "nonpayable",
      "type": "function"
    },
    {
      "inputs": [],
      "payable": false,
      "stateMutability": "nonpayable",
      "type": "constructor"
    },
    {
      "anonymous": false,
      "inputs": [
        {
          "indexed": true,
          "name": "previousOwner",
          "type": "address"
        }
      ],
      "name": "OwnershipRenounced",
      "type": "event"
    },
    {
      "anonymous": false,
      "inputs": [
        {
          "indexed": true,
          "name": "previousOwner",
          "type": "address"
        },
        {
          "indexed": true,
          "name": "newOwner",
          "type": "address"
        }
      ],
      "name": "OwnershipTransferred",
      "type": "event"
    },
    {
      "constant": false,
      "inputs": [
        {
          "name": "url",
          "type": "string"
        }
      ],
      "name": "addTrack",
      "outputs": [],
      "payable": true,
      "stateMutability": "payable",
      "type": "function"
    },
    {
      "constant": false,
      "inputs": [],
      "name": "playTrack",
      "outputs": [
        {
          "name": "url",
          "type": "string"
        }
      ],
      "payable": false,
      "stateMutability": "nonpayable",
      "type": "function"
    }
  ],
  "bytecode": "0x6080604052662386f26fc1000060015534801561001b57600080fd5b50336000806101000a81548173ffffffffffffffffffffffffffffffffffffffff021916908373ffffffffffffffffffffffffffffffffffffffff1602179055506108728061006b6000396000f300608060405260043610610083576000357c0100000000000000000000000000000000000000000000000000000000900463ffffffff168063715018a6146100885780638da5cb5b1461009f578063a035b1fe146100f6578063bb78f66e14610121578063c979e117146101b1578063ed0aad4d146101e3578063f2fde38b1461023f575b600080fd5b34801561009457600080fd5b5061009d610282565b005b3480156100ab57600080fd5b506100b4610384565b604051808273ffffffffffffffffffffffffffffffffffffffff1673ffffffffffffffffffffffffffffffffffffffff16815260200191505060405180910390f35b34801561010257600080fd5b5061010b6103a9565b6040518082815260200191505060405180910390f35b34801561012d57600080fd5b506101366103af565b6040518080602001828103825283818151815260200191508051906020019080838360005b8381101561017657808201518184015260208101905061015b565b50505050905090810190601f1680156101a35780820380516001836020036101000a031916815260200191505b509250505060405180910390f35b3480156101bd57600080fd5b506101c661041b565b604051808381526020018281526020019250505060405180910390f35b61023d600480360381019080803590602001908201803590602001908080601f016020809104026020016040519081016040528093929190818152602001838380828437820191505050505050919291929050505061042d565b005b34801561024b57600080fd5b50610280600480360381019080803573ffffffffffffffffffffffffffffffffffffffff16906020019092919050505061044c565b005b6000809054906101000a900473ffffffffffffffffffffffffffffffffffffffff1673ffffffffffffffffffffffffffffffffffffffff163373ffffffffffffffffffffffffffffffffffffffff161415156102dd57600080fd5b6000809054906101000a900473ffffffffffffffffffffffffffffffffffffffff1673ffffffffffffffffffffffffffffffffffffffff167ff8df31144d9c2f0f6b59d69b8b98abd5459d07f2742c4df920b25aae33c6482060405160405180910390a260008060006101000a81548173ffffffffffffffffffffffffffffffffffffffff021916908373ffffffffffffffffffffffffffffffffffffffff160217905550565b6000809054906101000a900473ffffffffffffffffffffffffffffffffffffffff1681565b60015481565b60606000809054906101000a900473ffffffffffffffffffffffffffffffffffffffff1673ffffffffffffffffffffffffffffffffffffffff163373ffffffffffffffffffffffffffffffffffffffff1614151561040c57600080fd5b61041660026104b3565b905090565b60028060010154908060020154905082565b600154341015151561043e57600080fd5b6104496002826105da565b50565b6000809054906101000a900473ffffffffffffffffffffffffffffffffffffffff1673ffffffffffffffffffffffffffffffffffffffff163373ffffffffffffffffffffffffffffffffffffffff161415156104a757600080fd5b6104b08161065f565b50565b60608160010154826002015414156104ca576105d5565b8160000182600101548154811015156104df57fe5b906000526020600020018054600181600116156101000203166002900480601f01602080910402602001604051908101604052809291908181526020018280546001816001161561010002031660029004801561057d5780601f106105525761010080835404028352916020019161057d565b820191906000526020600020905b81548152906001019060200180831161056057829003601f168201915b5050505050905081600001826001015481548110151561059957fe5b9060005260206000200160006105af9190610759565b816000018054905060018360010154018115156105c857fe5b0682600101819055508090505b919050565b8160010154826000018054905060018460020154018115156105f857fe5b0614156106045761065b565b8082600001836002015481548110151561061a57fe5b9060005260206000200190805190602001906106379291906107a1565b508160000180549050600183600201540181151561065157fe5b0682600201819055505b5050565b600073ffffffffffffffffffffffffffffffffffffffff168173ffffffffffffffffffffffffffffffffffffffff161415151561069b57600080fd5b8073ffffffffffffffffffffffffffffffffffffffff166000809054906101000a900473ffffffffffffffffffffffffffffffffffffffff1673ffffffffffffffffffffffffffffffffffffffff167f8be0079c531659141344cd1fd0a4f28419497f9722a3daafe3b4186f6b6457e060405160405180910390a3806000806101000a81548173ffffffffffffffffffffffffffffffffffffffff021916908373ffffffffffffffffffffffffffffffffffffffff16021790555050565b50805460018160011615610100020316600290046000825580601f1061077f575061079e565b601f01602090049060005260206000209081019061079d9190610821565b5b50565b828054600181600116156101000203166002900490600052602060002090601f016020900481019282601f106107e257805160ff1916838001178555610810565b82800160010185558215610810579182015b8281111561080f5782518255916020019190600101906107f4565b5b50905061081d9190610821565b5090565b61084391905b8082111561083f576000816000905550600101610827565b5090565b905600a165627a7a72305820e096cf7995be0527cee13dc2c5d0084ecaa9927fd9a1fe11da730b3457e4c5810029",
  "source": "pragma solidity ^0.4.21;\n\nimport \"zeppelin-solidity/contracts/ownership/Ownable.sol\";\n\n\ncontract WorldJukebox is Ownable {\n\n\t//.01 ETH in Wei\n\tuint public price = 10000000000000000;\n\tQueue public trackQueue;\n\n\tconstructor(){\n\t}\n\n\tfunction addTrack(string url) payable{\n\t\trequire(msg.value >= price);\n\t\tpush(trackQueue, url);\n\t}\n\tfunction playTrack() onlyOwner returns (string url){\n\t\treturn pop(trackQueue);\n\t}\n\n    struct Queue {\n        string[] data;\n        uint front;\n        uint back;\n    }\n    /// @dev the number of elements stored in the queue.\n    function length(Queue storage q) constant internal returns (uint) {\n        return q.back - q.front;\n    }\n    /// @dev the number of elements this queue can hold\n    function capacity(Queue storage q) constant internal returns (uint) {\n        return q.data.length - 1;\n    }\n    /// @dev push a new element to the back of the queue\n    function push(Queue storage q, string data) internal\n    {\n        if ((q.back + 1) % q.data.length == q.front)\n            return; // throw;\n        q.data[q.back] = data;\n        q.back = (q.back + 1) % q.data.length;\n    }\n    /// @dev remove and return the element at the front of the queue\n    function pop(Queue storage q) internal returns (string r)\n    {\n        if (q.back == q.front)\n            return; // throw;\n        r = q.data[q.front];\n        delete q.data[q.front];\n        q.front = (q.front + 1) % q.data.length;\n        return r;\n    }\n}",
  "sourcePath": "/Users/bit1/BrandonDev/worldjukebox/contracts/WorldJukebox.sol",
  "compiler": {
    "name": "solc",
    "version": "0.4.24+commit.e67f0147.Emscripten.clang"
  },
  "schemaVersion": "2.0.0",
  "updatedAt": "2018-07-26T16:14:00.329Z"
}